:0E0000000C9430000C9400000C9400000C9442
:10000E0000000C9400000C9400000C9400000C9462
:10001E0000000C9400000C9400000C9400000C9452
:10002E0000000C9400000C9400000C9400000C9442
:10003E0000000C9400000C9400000C9400000C9432
:10004E0000000C94000000000A000400040054009C
:10005E000000F894EE27ECBBF1E0FBBFEBBFE5BF71
:10006E008DE0A2E0BB27ED938A95E9F780E094E05E
:10007E00A0E6ED930197E9F7E8E5F0E0859195911B
:10008E00009761F0A591B59105901590BF01F00113
:10009E0005900D920197E1F7FB01F0CFEFE5EDBF73
:1000AE00E4E0EEBFC0E6D1E00C945D00FF24EFEF7C
:1000BE00EABBE0E0E7BBE4BBE1BBEBBBEFE1E8BBD7
:1000CE00E7E0E5BBEFE3E2BB809902C06894F0F88D
:1000DE00819902C06894F0F8829902C06894F1F890
:1000EE00839902C06894F2F8849902C06894F3F878
:1000FE00859902C06894F3F8989902C06894F0F854
:10010E00999903C06894F1F8F2F89A9902C068942C
:10011E00F3F8E3B3E095E77021F4E0B3E095EF7305
:10012E0011F044245524F0FE04C0B29902C0D89BAD
:10013E0001C003C0E894F0F81FC0F1FE04C0B399EB
:10014E0002C0D99B01C004C0E894F1F8F2F814C0C3
:10015E00F2FE04C0B39902C0D89B01C004C0E8945B
:10016E00F1F8F2F809C0F3FE04C0B49902C0D99BAD
:10017E0001C004C0E894F3F8E0E0EBBBB09B05C00F
:10018E00B19903C0EBB3E03009F046C0B29907C095
:10019E00F1FC04C0F2FC02C0F3FE01C001C00AC0B3
:1001AE004614570424F4F20131962F0102C0E1E007
:1001BE00EBBB31C0B39902C0F3FC01C00AC04614B8
:1001CE00570424F4F20131962F0102C0E1E0EBBB9B
:1001DE0022C0B39902C0F0FC01C00AC046145704F5
:1001EE0024F4F20131962F0102C0E2E0EBBB13C002
:1001FE00B49907C0F0FC04C0F1FC02C0F2FE01C0CD
:10020E0001C009C04614570424F4F20131962F019F
:10021E0002C0E2E0EBBB02C04424552455CFFFCF11
:00000001FF
